S01300007472616E736D69747465722E7372656354
S11300000C942A000C947C010C943C000C943C004D
S11300100C943C000C943C000C943C000C943C006C
S11300200C943C000C943C000C94CE000C943C00CA
S11300300C943C000C943C000C943C000C943C004C
S11300400C943C000C943C000C943C000C943C003C
S11300500C943C0011241FBECFE5D8E0DEBFCDBF19
S113006020E0A0E6B0E001C01D92AC36B207E1F793
S11300700E948E000C94D1010C940000E0E6F0E0A4
S113008011821082128213821482158216821782C0
S113009008959C01A7E5B1E00E94C20120E23EE47C
S11300A040E050E00E94A001223031054105510595
S11300B068F0DA01C901813921E09207A105B1058F
S11300C048F080E991E0A0E0B0E0089582E090E09B
S11300D0A0E0B0E008950E943E01882329F00E9428
S11300E039010E94490008958FEF0895A89A089550
S11300F0A8980895A09A0E9478008A98929A0895E0
S11301000E94760083E08A95F1F700000E9478004F
S1130110089580B382FB882780F908950E943E00E9
S11301200E94F3000E947A000E94AF000E944801DE
S11301307894CFEF0E9454018EE190E00E94FF007A
S1130140882319F00E946B0001C08C2F0E94FB00D1
S113015087EA91E60197F1F700C00000EBCF1FBCDE
S11301601EBC1DBC1CBC8DE083BF87E08CBF89B75F
S1130170826089BF08951DBC1CBC82E08EBD0895B9
S11301801EBC08958CB59DB508956091680070916A
S1130190690080916A0090916B0008951F920F92FC
S11301A00FB60F9211248F939F93AF93BF938091B7
S11301B0680090916900A0916A00B0916B0001966B
S11301C0A11DB11D8093680090936900A0936A00FB
S11301D0B0936B00BF91AF919F918F910F900FBE21
S11301E00F901F90189510BC83E389B988E08AB9F1
S11301F086E880BD08955D9BFECF8CB908958F92EB
S11302009F92AF92BF92CF92DF92EF92FF921F9391
S1130210CF93DF936C010E94C5004B015C011091E8
S11302206200111119C0E12CF12CC0E6D0E00E944B
S1130230C500DC01CB0188199909AA09BB098C15F1
S11302409D05AE05BF0540F483E08A95F1F70000F3
S11302508A81882361F3182F812FDF91CF911F9119
S1130260FF90EF90DF90CF90BF90AF909F908F90D2
S113027008958091600090916100089580916200DA
S11302800895E0E6F0E0118210821282138208954C
S113029085B7816085BF85B78D7F85BF8BB7806447
S11302A08BBF0E94410108950E9441010E94800079
S11302B00E94C5006093640070936500809366009B
S11302C09093670008950E948900882331F00E946A
S11302D0BB0081E0809363000895809163008823CC
S11302E051F00E94C0000E94C200E0E6F0E0918359
S11302F0808381E0828308951F920F920FB60F923C
S113030011242F933F934F935F936F937F938F9316
S11303109F93AF93BF93EF93FF930E946301FF9169
S1130320EF91BF91AF919F918F917F916F915F9169
S11303304F913F912F910F900FBE0F901F901895E2
S1130340A1E21A2EAA1BBB1BFD010DC0AA1FBB1FD5
S1130350EE1FFF1FA217B307E407F50720F0A21B47
S1130360B30BE40BF50B661F771F881F991F1A94B4
S113037069F760957095809590959B01AC01BD01DE
S1130380CF010895A29FB001B39FC001A39F700D38
S1130390811D1124911DB29F700D811D1124911D89
S10903A00895F894FFCF5C
S9030000FC
