S010000052656365697665722E73726563DF
S11300000C942A000C9447000C9447000C9447006D
S11300100C9447000C9447000C9447000C9458012E
S11300200C9447000C9447000C9447000C94470030
S11300300C9447000C9488010C9447000C944700DE
S11300400C9447000C9447000C9447000C94470010
S11300500C94470011241FBECFE5D8E0DEBFCDBF0E
S113006010E0A0E6B0E0ECE5F3E002C005900D92EC
S1130070AA36B107D9F720E0AAE6B0E001C01D9284
S1130080A637B207E1F70E9415010C94AC010C9459
S11300900000E0E6F0E014821382168215821086D6
S11300A0178208950E940B01E0E6F0E014821382A7
S11300B0168215820895CF92DF92EF92FF920E94EA
S11300C03B016B017C0180916E0090916F00A091C7
S11300D07000B0917100A7019601281B390B4A0BDF
S11300E05B0BDA01C901843F9140A105B10550F0D1
S11300F00E94F200C0926E00D0926F00E0927000F5
S1130100F0927100FF90EF90DF90CF900895CF921E
S1130110DF92EF92FF920F931F930E943B016B01BA
S11301207C018091670090916800892B19F180917E
S113013067009091680040916A0050916B00609153
S11301406C0070916D0097018601041B150B260B42
S1130150370BA0E0B0E0081719072A073B0750F057
S11301600E940001C0926A00D0926B00E0926C0081
S1130170F0926D001F910F91FF90EF90DF90CF9060
S11301800895E0E6F0E0808190E09C01220F331FA7
S1130190880F991F880F991F880F991F820F931F2B
S11301A0908787830E945B000E9487000895809156
S11301B06000833318F40E94C10008950E94520025
S11301C00895E0E6F0E084E18083118212821482D3
S11301D0138216821582108617820895C098109291
S11301E06100089598B381E0982798BBE0E6F0E0B9
S11301F09181892781830895C1981092620008959E
S113020098B382E0892788BBE0E6F0E0928181E040
S11302108927828308950E94EE000E94FC000895BD
S1130220B89AB99A0E940B0108950E94E1000E94B5
S11302307C010E9410010E9429010E9449007894C7
S11302400E94D70083EC99E00197F1F700C0000009
S1130250F7CF8BE08EBD8FEF9FEF9BBD8ABD89B733
S1130260806189BF10927200109273001092740022
S113027010927500089560917200709173008091DE
S113028074009091750008958091720090917300AC
S1130290A0917400B09175000196A11DB11D8093C9
S11302A0720090937300A0937400B0937500089546
S11302B01F920F920FB60F9211242F933F934F93D7
S11302C05F936F937F938F939F93AF93BF93EF93BA
S11302D0FF930E944401FF91EF91BF91AF919F91D1
S11302E08F917F916F915F914F913F912F910F90DB
S11302F00FBE0F901F90189510BC83E389B980E955
S11303008AB986E880BD08958CB180936000089511
S11303101F920F920FB60F9211242F933F934F9376
S11303205F936F937F938F939F93AF93BF93EF9359
S1130330FF930E948401FF91EF91BF91AF919F9130
S11303408F917F916F915F914F913F912F910F907A
S10F03500FBE0F901F901895F894FFCF7B
S10D035CFF00000000000000000094
S9030000FC
